S01700004D435032353135205350492043414E2E7372656362
S11300000C943E000C945B000C945B000C945B001D
S11300100C945B000C945B000C945B000C945B00F0
S11300200C945B000C945B000C945B000C945B00E0
S11300300C945B000C945B000C945B000C945B00D0
S11300400C945B000C945B000C945B000C945B00C0
S11300500C945B000C945B000C945B000C945B00B0
S11300600C945B000C945B000C945B000C945B00A0
S11300700C945B000C945B000C945B0011241FBE79
S1130080CFEFD8E0DEBFCDBF11E0A0E0B1E0E4E205
S1130090F6E002C005900D92A830B107D9F721E02F
S11300A0A8E0B1E001C01D92AF30B207E1F70E94B1
S11300B05D000C9410030C940000CF93DF93CDB734
S11300C0DEB728970FB6F894DEBF0FBECDBF0E94EF
S11300D0DC0288E0E0E0F1E0DE01119601900D928F
S11300E08A95E1F70E948400CE0101960E941301D3
S11300F08823D1F32FE986E891E021508040904095
S1130100E1F700C00000F0CFCF93DF93CDB7DEB7A7
S1130110A0970FB6F894DEBF0FBECDBF0E943E017C
S113012083ED90E30197F1F700C00000198E1A8E59
S11301301B8E1C8E1D8E1E8E1F8E18A219821A8273
S11301401B821C821D8288E08E831F82188619867A
S11301501A861B861C861D861E861F86188A198A87
S11301601A8A1B8A1C8A1D8A8E8B1F8A188E0E94EB
S11301708801882309F44EC0AE01475E5F4F63E2F5
S113018080E20E949B01AE01435E5F4F67E284E21E
S11301900E949B01AE014F5F5F4F63E080E00E94CD
S11301A09B01AE014B5F5F4F67E084E00E949B01BF
S11301B0AE01475F5F4F6BE088E00E949B01AE0198
S11301C0435F5F4F63E180E10E949B01AE014F5E9C
S11301D05F4F67E184E10E949B01AE014B5E5F4F7C
S11301E06BE188E10E949B0164E080E60E945B0170
S11301F061E080E70E945B0160E08AE20E945B01AB
S113020061ED89E20E945B0161E888E20E945B0182
S11302100E947601A0960FB6F894DEBF0FBECDBF44
S1130220DF91CF910895CF93DF93EC010E94B90140
S113023080930A0160E080E30E945B0160E080E457
S11302400E945B0160E080E50E945B0180910A01ED
S113025082FD04C0CE010E94C6010DC084FD04C00D
S1130260CE010E941B0207C086FD04C0CE010E947D
S1130270700201C080E0DF91CF91089585B18F7E37
S113028085B980EC0E94E60285B1806185B9089544
S1130290CF93C82F85B18F7E85B983E00E94E60293
S11302A08C2F0E94E60280E00E94E60295B19061E4
S11302B095B9CF910895CF93DF9300D0CDB7DEB732
S11302C089836A8385B18F7E85B982E00E94E602C4
S11302D089810E94E6028A810E94E60285B18061DA
S11302E085B90F900F90DF91CF910895CF9360E07F
S11302F08FE00E945B01CAE08EE00E944801807E8C
S113030021F0C150C9F780E001C081E0CF91089588
S1130310CF9360E88FE00E945B01CAE08EE00E9408
S11303204801807E803821F0C150C1F780E001C0CF
S113033081E0CF9108950F931F93CF93DF93D82F2C
S1130340C62F8A0185B18F7E85B982E00E94E602BC
S11303508D2F0E94E6026C2F6D1B6F5FC8010E94F7
S1130360EC0285B1806185B9DF91CF911F910F9126
S1130370089585B18F7E85B980EA0E94E60280E007
S11303800E94E60295B1906195B908950F931F9369
S1130390CF93DF938C0164E281E30E945B0181E3EC
S11303A00E94480160E682E30E945B0182E30E94AE
S11303B0480160E083E30E945B0183E30E944801FB
S11303C060E084E30E945B0184E30E94480168E0EA
S11303D085E30E945B0185E30E944801C0E0D0E010
S11303E009C0F801EC0FFD1F60818C2F8A5C0E940C
S11303F05B012196C830D105A4F36BE080E30E9431
S11304005B0180E30E94480184FD0FC061E08DE040
S11304100E945B0185B18F7E85B981E80E94E60266
S113042085B1806185B981E001C080E0DF91CF9121
S11304301F910F9108950F931F93CF93DF938C0116
S113044064E281E40E945B0181E40E94480160E669
S113045082E40E945B0182E40E94480160E083E43C
S11304600E945B0183E40E94480160E084E40E94EE
S11304705B0184E40E94480168E085E40E945B011A
S113048085E40E944801C0E0D0E009C0F801EC0F07
S1130490FD1F60818C2F8A5B0E945B012196C8300E
S11304A0D105A4F36BE080E40E945B0180E40E9428
S11304B0480184FD0FC062E08DE00E945B0185B1BC
S11304C08F7E85B982E80E94E60285B1806185B994
S11304D081E001C080E0DF91CF911F910F910895D9
S11304E00F931F93CF93DF938C016BE080E50E9401
S11304F05B0180E50E9448018093080164E281E584
S11305000E945B0181E50E9448018093080160E636
S113051082E50E945B0182E50E9448018093080104
S113052060E083E50E945B0183E50E9448018093BB
S1130530080160E084E50E945B0184E50E944801B3
S11305408093080168E085E50E945B0185E50E94CF
S1130550480180930801C0E0D0E009C0F801EC0F25
S1130560FD1F60818C2F8A5A0E945B012196C8303E
S1130570D105A4F38091080184FD18C06BE080E3E9
S11305800E945B0180E30E9448018093080164E0BB
S11305908DE00E945B0185B18F7E85B984E80E945D
S11305A0E60285B1806185B981E001C080E0DF9118
S11305B0CF911F910F91089584B1806B84B984B158
S11305C08F7B84B98CB581658CBD08958EBD0DB4C7
S11305D007FEFDCF8EB50895DC01362F90E01DC0D7
S11305E0FD01E90FF11D20812EBD40E050E0BA016C
S11305F010C0E9EFF0E03197F1F700C000004F5F61
S11306005F4F6F4F7F4F4131F7E25F07610571051F
S113061018F40DB407FEEDCF9F5F931708F3089508
S1070620F894FFCF78
S10B06240001020304050607AE
S9030000FC
